{
  "contractName": "Election",
  "abi": [
    {
      "inputs": [],
      "payable": false,
      "stateMutability": "nonpayable",
      "type": "constructor"
    },
    {
      "anonymous": false,
      "inputs": [
        {
          "indexed": false,
          "internalType": "uint256",
          "name": "indexed_candidateId",
          "type": "uint256"
        }
      ],
      "name": "votedEvent",
      "type": "event"
    },
    {
      "constant": true,
      "inputs": [
        {
          "internalType": "uint256",
          "name": "",
          "type": "uint256"
        }
      ],
      "name": "candidates",
      "outputs": [
        {
          "internalType": "uint256",
          "name": "id",
          "type": "uint256"
        },
        {
          "internalType": "string",
          "name": "name",
          "type": "string"
        },
        {
          "internalType": "uint256",
          "name": "voteCount",
          "type": "uint256"
        }
      ],
      "payable": false,
      "stateMutability": "view",
      "type": "function"
    },
    {
      "constant": true,
      "inputs": [],
      "name": "candidatesCount",
      "outputs": [
        {
          "internalType": "uint256",
          "name": "",
          "type": "uint256"
        }
      ],
      "payable": false,
      "stateMutability": "view",
      "type": "function"
    },
    {
      "constant": true,
      "inputs": [
        {
          "internalType": "address",
          "name": "",
          "type": "address"
        }
      ],
      "name": "voters",
      "outputs": [
        {
          "internalType": "bool",
          "name": "",
          "type": "bool"
        }
      ],
      "payable": false,
      "stateMutability": "view",
      "type": "function"
    },
    {
      "constant": false,
      "inputs": [
        {
          "internalType": "uint256",
          "name": "_candidateId",
          "type": "uint256"
        }
      ],
      "name": "vote",
      "outputs": [],
      "payable": false,
      "stateMutability": "nonpayable",
      "type": "function"
    }
  ],
  "bytecode": "0x608060405234801561001057600080fd5b506100556040518060400160405280600481526020017f45726963000000000000000000000000000000000000000000000000000000008152506100e260201b60201c565b6100996040518060400160405280600481526020017f4d696b65000000000000000000000000000000000000000000000000000000008152506100e260201b60201c565b6100dd6040518060400160405280600581526020017f456c656e610000000000000000000000000000000000000000000000000000008152506100e260201b60201c565b610203565b60026000815480929190600101919050555060405180606001604052806002548152602001828152602001600081525060016000600254815260200190815260200160002060008201518160000155602082015181600101908051906020019061014d92919061015e565b506040820151816002015590505050565b828054600181600116156101000203166002900490600052602060002090601f016020900481019282601f1061019f57805160ff19168380011785556101cd565b828001600101855582156101cd579182015b828111156101cc5782518255916020019190600101906101b1565b5b5090506101da91906101de565b5090565b61020091905b808211156101fc5760008160009055506001016101e4565b5090565b90565b6103f3806102126000396000f3fe608060405234801561001057600080fd5b506004361061004c5760003560e01c80630121b93f146100515780632d35a8a21461007f5780633477ee2e1461009d578063a3ec138d14610152575b600080fd5b61007d6004803603602081101561006757600080fd5b81019080803590602001909291905050506101ae565b005b6100876102d6565b6040518082815260200191505060405180910390f35b6100c9600480360360208110156100b357600080fd5b81019080803590602001909291905050506102dc565b6040518084815260200180602001838152602001828103825284818151815260200191508051906020019080838360005b838110156101155780820151818401526020810190506100fa565b50505050905090810190601f1680156101425780820380516001836020036101000a031916815260200191505b5094505050505060405180910390f35b6101946004803603602081101561016857600080fd5b81019080803573ffffffffffffffffffffffffffffffffffffffff16906020019092919050505061039e565b604051808215151515815260200191505060405180910390f35b6000803373ffffffffffffffffffffffffffffffffffffffff1673ffffffffffffffffffffffffffffffffffffffff16815260200190815260200160002060009054906101000a900460ff161561020457600080fd5b60008111801561021657506002548111155b61021f57600080fd5b60016000803373ffffffffffffffffffffffffffffffffffffffff1673ffffffffffffffffffffffffffffffffffffffff16815260200190815260200160002060006101000a81548160ff02191690831515021790555060016000828152602001908152602001600020600201600081548092919060010191905055507ffff3c900d938d21d0990d786e819f29b8d05c1ef587b462b939609625b684b16816040518082815260200191505060405180910390a150565b60025481565b6001602052806000526040600020600091509050806000015490806001018054600181600116156101000203166002900480601f01602080910402602001604051908101604052809291908181526020018280546001816001161561010002031660029004801561038e5780601f106103635761010080835404028352916020019161038e565b820191906000526020600020905b81548152906001019060200180831161037157829003601f168201915b5050505050908060020154905083565b60006020528060005260406000206000915054906101000a900460ff168156fea265627a7a7231582065db918ac477319f00c43c47e0b1491f72836728a37375b97d529656820c962064736f6c63430005100032",
  "source": "//编写智能合约——投票\r\n//指定编译器>=0.4.0 <0.6.0\r\npragma solidity >=0.4.0<0.6.0;\r\n\r\n//定义一个合约\r\ncontract Election{\r\n\t//定义一个候选人结构体\r\n\tstruct Candidate{\r\n\t\tuint id;\t//无符号整形ID\r\n\t\tstring name;\t//名字\r\n\t\tuint voteCount;\t//投票数量\r\n\t}\r\n\r\n\t//记录选民账户的投票状态\r\n\tmapping(address=>bool)public voters;\r\n\t//定义键值对映射关系的存储结构来存储候选人\r\n\tmapping(uint=>Candidate)public candidates;\r\n\t//候选人的数量\r\n\tuint public candidatesCount;\r\n\t//投票事件\r\n\tevent votedEvent(uint indexed_candidateId);\r\n\r\n\t//默认构造函数, 增加3个候选人\r\n\tconstructor() public {\r\n\t\taddCandidate(\"Eric\");\r\n\t\taddCandidate(\"Mike\");\r\n\t\taddCandidate(\"Elena\");\r\n\t}\r\n\r\n\t//增加候选人\r\n\tfunction addCandidate(string memory _name) private {\r\n\t\tcandidatesCount++;\r\n\t\tcandidates[candidatesCount] = Candidate(candidatesCount, _name, 0);\r\n\t}\r\n\r\n\t//投票\r\n\tfunction vote(uint _candidateId) public {\r\n\t\t//确保选民之前没有投票\r\n\t\trequire(!voters[msg.sender]);\r\n\t\t//确保候选人的合法性\r\n\t\trequire(_candidateId>0 && _candidateId<=candidatesCount);\r\n\t\t//记录选民的投票状态\r\n\t\tvoters[msg.sender] = true;\r\n\t\t//更新候选人票数\r\n\t\tcandidates[_candidateId].voteCount++;\r\n\t\t//触发投票事件\r\n\t\temit votedEvent(_candidateId);\r\n\t}\r\n}\r\n",
  "sourcePath": "D:/111/truffle/contracts/Election.sol",
  "compiler": {
    "name": "solc",
    "version": "0.5.16+commit.9c3226ce.Emscripten.clang"
  },
  "schemaVersion": "3.3.4",
  "updatedAt": "2021-03-09T13:36:41.590Z",
  "networkType": "ethereum",
  "devdoc": {
    "methods": {}
  },
  "userdoc": {
    "methods": {}
  }
}